:200000000C9462000C948A000C948A000C948A000C948A000C948A000C948A000C948A00B8
:200020000C948A000C948A000C948A000C9422020C948A000C948A000C948A000C948A00D6
:200040000C94D8010C948A000C948A000C948A000C948A000C948A000C948A000C948A0001
:200060000C948A000C948A0000000000240027002A00000000002300260029000000000045
:20008000250028002B0004040404040404040202020202020303030303030102040810206B
:2000A0004080010204081020010204081020000000080002010000030407000000000000E9
:2000C0000000F60311241FBECFEFD8E0DEBFCDBF11E0A0E0B1E0ECECFBE002C005900D92CB
:2000E000A430B107D9F721E0A4E0B1E001C01D92A831B207E1F710E0C2E6D0E004C02197F0
:20010000FE010E94CA05C136D107C9F70E94B8020C94E4050C9400008091020120E4829F22
:20012000C0011124876080937C0080917A00806480937A0080917A0086FDFCCF80917800F5
:20014000909179000895833081F028F4813099F08230A9F008958730A9F08830C9F0843091
:20016000B1F4809180008F7D03C0809180008F7780938000089584B58F7784BD089584B55D
:200180008F7DFBCF8091B0008F778093B00008958091B0008F7DF9CF1F93CF93DF93E1EB7B
:2001A000F0E09491EDE9F0E0D491E9E8F0E0C491CC23B9F0182F992319F0892F0E94A300A8
:2001C000EC2FF0E0EE0FFF1FE458FF4FA591B4918FB7F894EC91111108C0D095DE23DC9306
:2001E0008FBFDF91CF911F910895DE2BF8CFCF93DF9390E0FC01E656FF4F24918A579F4F75
:20020000FC0184918823C9F090E0880F991FFC01E859FF4FA591B491FC01E458FF4FC591C5
:20022000D49161110DC09FB7F8948C91209582238C938881282328839FBFDF91CF910895D8
:20024000623051F49FB7F8943C91822F809583238C93E8812E2BEFCF8FB7F894EC912E2B65
:200260002C938FBFEACF3FB7F8948091070190910801A0910901B0910A0126B5A89B05C089
:200280002F3F19F00196A11DB11D3FBFBA2FA92F982F8827BC01CD01620F711D811D911DB9
:2002A00042E0660F771F881F991F4A95D1F708958F929F92AF92BF92CF92DF92EF92FF92A6
:2002C0004B015C010E9433016B017C010E9433016C197D098E099F09683E73408105910521
:2002E000A8F321E0821A9108A108B10888EEC80E83E0D81EE11CF11C81149104A104B10498
:2003000029F7FF90EF90DF90CF90BF90AF909F908F90089528B1297D28B92BB12F712BB9A8
:2003200025B12C7F25B98A309105C8F4FC01E556FE4F0C94CA05D301A501A801B001B801D1
:20034000BF01C201C901CD01D001459A5E9A089588B1826288B95D9A85B1836085B90895F4
:2003600088B1826288B98BB180668BB9289A089588B1846288B98BB180668BB9089588B1BE
:200380008660F0CF88B1866088B98BB180668BB9E3CF88B1826288B9D9CF88B18662F4CF56
:2003A00088B18662DFCF88B1866288B95E9AD4CF1F920F920FB60F9211242F933F938F93CE
:2003C0009F93AF93BF9380910B0190910C01A0910D01B0910E013091060123E0230F2D371C
:2003E00058F50196A11DB11D2093060180930B0190930C01A0930D01B0930E0180910701D8
:2004000090910801A0910901B0910A010196A11DB11D8093070190930801A0930901B09341
:200420000A01BF91AF919F918F913F912F910F900FBE0F901F90189526E8230F0296A11D44
:20044000B11DD2CF1F920F920FB60F9211242F933F934F935F936F937F938F939F93AF932E
:20046000BF93EF93FF9380910F01909110018031974234F08FE097E29093100180930F01D6
:2004800080910401909105018130910509F447C004F5892B91F180910401909105018330B5
:2004A000910509F462C001969093050180930401FF91EF91BF91AF919F918F917F916F91AF
:2004C0005F914F913F912F910F900FBE0F901F90189582309105B1F10397E9F680910F01D1
:2004E000909110016AE070E00E94B6050E948A0188B1896188B95C98CECF80910F0190916F
:20050000100168EE73E00E94B605CB010E948A015F9A409888B1886188B95C9ABCCF809105
:200520000F019091100164E670E00E94B605CB016AE070E00E94B6050E948A01439888B17E
:200540008161EACF80910F01909110012AE030E0B9010E94B605CB01B9010E94B6050E94F7
:200560008A01449888B18960D7CF90E080E09CCF789484B5826084BD84B5816084BD85B514
:20058000826085BD85B5816085BD80916E00816080936E001092810080918100826080934F
:2005A000810080918100816080938100809180008160809380008091B10084608093B10044
:2005C0008091B00081608093B00080917A00846080937A0080917A00826080937A008091AF
:2005E0007A00816080937A0080917A00806880937A001092C1001092020187B18F6387B9A1
:200600008AB18C6F8AB984B1836084B988B18F6388B98BB18C6F8BB985B1836085B94098F6
:20062000439844985C98F894109280008BE08093810082EE94E0909389008093880082E0D5
:2006400080936F0061E083E00E94F70060E085E10E94F70062E08AE00E94F700789480E0EB
:200660000E94CC0068EE73E080E090E00E945801D0E0C0E00E948C00209729F49093010121
:200680008093000107C0209100013091010128173907A4F32196C83E83E0D80759F76091B4
:2006A000000170910101072E000C880B990B0E94BD0429E23CE54FE450E40E94490520E0D8
:2006C00030E040E85AE30E94490520E030E04AE754E40E9449050E9485047093100160931A
:2006E0000F0168EB7BE080E090E00E945801C8EBD0E004EA10E090E9E92E90E0F92E20E009
:20070000C22E20E0D22EAA24A394FE018491F801B490F701949091102DC00C940000809039
:2007200000019090010180911701811133C00E948C0088169906C4F0A092170181E00E947C
:20074000CC002FB7F89480910B0190910C01A0910D01B0910E012FBF809311019093120138
:20076000A0931301B0931401C114D10471F20E940000CBCF81110E94A300E92DF0E0EE0FD7
:20078000FF1FEE58FF4FA591B4918C91B82209F4C4CFC5CF0E948C00209115013091160144
:2007A000820E931E88169906FCF68FB7F89440900B0150900C0160900D0170900E018FBFD3
:2007C0008091110190911201A0911301B0911401481A590A6A0A7B0A80E00E94CC001092F9
:2007E00017015092100140920F01BECF6091000170910101072E000C880B990B0E94BD04AF
:2008000029E23CE54FE450E40E94130420E030E040E05FE30E9449050E94850470931601E5
:200820006093150108950E9427040C940F050E94080558F00E94010540F029F45F3F29F0EE
:200840000C94F80451110C9443050C94FE040E94200568F39923B1F3552391F3951B550B82
:20086000BB27AA2762177307840738F09F5F5F4F220F331F441FAA1FA9F335D00E2E3AF0BD
:20088000E0E832D091505040E695001CCAF72BD0FE2F29D0660F771F881FBB1F261737079D
:2008A0004807AB07B0E809F0BB0B802DBF01FF2793585F4F3AF09E3F510578F00C94F80453
:2008C0000C9443055F3FE4F3983ED4F3869577956795B795F7959F5FC9F7880F911D9695F5
:2008E000879597F90895E1E0660F771F881FBB1F621773078407BA0720F0621B730B840B89
:20090000BA0BEE1F88F7E09508950E948C046894B1110C94430508950E94280588F09F57C2
:2009200098F0B92F9927B751B0F0E1F0660F771F881F991F1AF0BA95C9F714C0B13091F055
:200940000E944205B1E008950C944205672F782F8827B85F39F0B93FCCF386957795679593
:20096000B395D9F73EF490958095709561957F4F8F4F9F4F0895E89409C097FB3EF4909593
:200980008095709561957F4F8F4F9F4F9923A9F0F92F96E9BB279395F695879577956795F8
:2009A000B795F111F8CFFAF4BB0F11F460FF1BC06F5F7F4F8F4F9F4F16C0882311F096E9C2
:2009C00011C0772321F09EE8872F762F05C0662371F096E8862F70E060E02AF09A95660F8A
:2009E000771F881FDAF7880F9695879597F9089597F99F6780E870E060E008959FEF80ECB9
:200A0000089500240A941616170618060906089500240A9412161306140605060895092E68
:200A20000394000C11F4882352F0BB0F40F4BF2B11F460FF04C06F5F7F4F8F4F9F4F08950C
:200A400057FD9058440F551F59F05F3F71F04795880F97FB991F61F09F3F79F0879508953D
:200A6000121613061406551FF2CF4695F1DF08C0161617061806991FF1CF8695710561059D
:200A800008940895E894BB2766277727CB0197F908950E945C050C940F050E94010538F014
:200AA0000E94080520F0952311F00C94F8040C94FE0411240C9443050E94200570F3959F05
:200AC000C1F3950F50E0551F629FF001729FBB27F00DB11D639FAA27F00DB11DAA1F649F00
:200AE0006627B00DA11D661F829F2227B00DA11D621F739FB00DA11D621F839FA00D611DA8
:200B0000221F749F3327A00D611D231F849F600D211D822F762F6A2F11249F5750409AF0B8
:200B2000F1F088234AF0EE0FFF1FBB1F661F771F881F91505040A9F79E3F510580F00C94E4
:200B4000F8040C9443055F3FE4F3983ED4F3869577956795B795F795E7959F5FC1F7FE2B49
:200B6000880F911D9695879597F9089597FB072E16F4009407D077FD09D00E94D00507FCB9
:200B800005D03EF4909581959F4F0895709561957F4F0895EE0FFF1F0590F491E02D099443
:200BA000AA1BBB1B51E107C0AA1FBB1FA617B70710F0A61BB70B881F991F5A95A9F78095FD
:200BC0009095BC01CD010895F894FFCF00040100FFFFFFFFFFFFFFFFFFFFFFFFFFFFFFFF79
:200BE000FFFFFFFFFFFFFFFFFFFFFFFFFFFFFFFFFFFFFFFFFFFFFFFFFFFFFFFFFFFFFFFF15
:200C00008091290181112AC00E948C00E816F906C4F081E0809329010E94D9012FB7F894B2
:200C200080911F0190912001A0912101B09122012FBF8093250190932601A0932701B0937B
:200C40002801209709F4A9CF0E940D01882309F4A4CF0E940000A1CF80E0CCCF0E948C0039
:200C60002091C7013091C801E20EF31EE816F90644F78FB7F894C0901F01D0902001E09005
:200C80002101F09022018FBF8091250190912601A0912701B0912801C81AD90AEA0AFB0A41
:200CA00080E00E94D90110922901D0922401C0922301C7CF0E946E060C9456070E944F07EE
:200CC00058F00E94480740F029F45F3F29F00C943F0751110C948A070C9445070E94670762
:200CE00068F39923B1F3552391F3951B550BBB27AA2762177307840738F09F5F5F4F220FF7
:200D0000331F441FAA1FA9F335D00E2E3AF0E0E832D091505040E695001CCAF72BD0FE2F93
:200D200029D0660F771F881FBB1F261737074807AB07B0E809F0BB0B802DBF01FF279358DD
:200D40005F4F3AF09E3F510578F00C943F070C948A075F3FE4F3983ED4F3869577956795D4
:200D6000B795F7959F5FC9F7880F911D9695879597F90895E1E0660F771F881FBB1F62175E
:200D800073078407BA0720F0621B730B840BBA0BEE1F88F7E09508950E94D3066894B11157
:200DA0000C948A0708950E946F0788F09F5798F0B92F9927B751B0F0E1F0660F771F881F84
:200DC000991F1AF0BA95C9F714C0B13091F00E948907B1E008950C948907672F782F882790
:200DE000B85F39F0B93FCCF3869577956795B395D9F73EF490958095709561957F4F8F4FAE
:200E00009F4F0895E89409C097FB3EF490958095709561957F4F8F4F9F4F9923A9F0F92FF2
:200E200096E9BB279395F695879577956795B795F111F8CFFAF4BB0F11F460FF1BC06F5FA0
:200E40007F4F8F4F9F4F16C0882311F096E911C0772321F09EE8872F762F05C0662371F0EB
:200E600096E8862F70E060E02AF09A95660F771F881FDAF7880F9695879597F9089597F948
:200E80009F6780E870E060E008959FEF80EC089500240A9416161706180609060895002427
:200EA0000A9412161306140605060895092E0394000C11F4882352F0BB0F40F4BF2B11F4D8
:200EC00060FF04C06F5F7F4F8F4F9F4F089557FD9058440F551F59F05F3F71F04795880F2C
:200EE00097FB991F61F09F3F79F087950895121613061406551FF2CF4695F1DF08C0161628
:200F000017061806991FF1CF86957105610508940895E894BB2766277727CB0197F908956C
:200F20000E94A3070C9456070E94480738F00E944F0720F0952311F00C943F070C944507BC
:200F400011240C948A070E94670770F3959FC1F3950F50E0551F629FF001729FBB27F00DA6
:200F6000B11D639FAA27F00DB11DAA1F649F6627B00DA11D661F829F2227B00DA11D621F46
:200F8000739FB00DA11D621F839FA00D611D221F749F3327A00D611D231F849F600D211D0D
:200FA000822F762F6A2F11249F5750409AF0F1F088234AF0EE0FFF1FBB1F661F771F881F80
:200FC00091505040A9F79E3F510580F00C943F070C948A075F3FE4F3983ED4F3869577950D
:200FE0006795B795F795E7959F5FC1F7FE2B880F911D9695879597F9089597FB072E16F438
:20100000009407D077FD09D00E94390807FC05D03EF4909581959F4F0895709561957F4F9C
:201020000895A1E21A2EAA1BBB1BFD010DC0AA1FBB1FEE1FFF1FA217B307E407F50720F0AA
:20104000A21BB30BE40BF50B661F771F881F991F1A9469F760957095809590959B01AC0121
:20106000BD01CF010895EE0FFF1F0590F491E02D0994AA1BBB1B51E107C0AA1FBB1FA61772
:20108000B70710F0A61BB70B881F991F5A95A9F780959095BC01CD010895F894FFCF010064
:2010A00004000000004301A300D00090010101DF00F3000D0A00FFFFFFFFFFFFFFFFFFFF03
:2010C000FFFFFFFFFFFFFFFFFFFFFFFFFFFFFFFFFFFFFFFFFFFFFFFFFFFFFFFFFFFFFFFF30
:2010E000FFFFFFFFFFFFFFFFFFFFFFFFFFFFFFFFFFFFFFFFFFFFFFFFFFFFFFFFFFFFFFFF10
:20110000FFFFFFFFFFFFFFFFFFFFFFFFFFFFFFFFFFFFFFFFFFFFFFFFFFFFFFFFFFFFFFFFEF
:20112000FFFFFFFFFFFFFFFFFFFFFFFFFFFFFFFFFFFFFFFFFFFFFFFFFFFFFFFFFFFFFFFFCF
:207800000C94343C0C94513C0C94513C0C94513C0C94513C0C94513C0C94513C0C94513C1D
:207820000C94513C0C94513C0C94513C0C94513C0C94513C0C94513C0C94513C0C94513CE0
:207840000C94513C0C94513C0C94513C0C94513C0C94513C0C94513C0C94513C0C94513CC0
:207860000C94513C0C94513C11241FBECFEFD8E0DEBFCDBF11E0A0E0B1E0ECE9FFE702C07E
:2078800005900D92A230B107D9F712E0A2E0B1E001C01D92AD30B107E1F70E942D3D0C94CC
:2078A000CC3F0C94003C982F9595959595959595905D8F708A307CF0282F295A8091C000B5
:2078C00085FFFCCF9093C6008091C00085FFFCCF2093C6000895282F205DF0CF982F8091CF
:2078E000C00085FFFCCF9093C6000895EF92FF920F931F93EE24FF2487018091C00087FD7B
:2079000017C00894E11CF11C011D111D81E4E81682E4F8068FE0080780E0180770F3E09106
:207920000401F091050109958091C00087FFE9CF8091C6001F910F91FF90EF9008950E949A
:20794000763C982F8091C00085FFFCCF9093C60091362CF490330CF09053892F08959755DB
:20796000892F08951F930E949F3C182F0E949F3C1295107F810F1F9108951F93182F882308
:2079800021F00E94763C1150E1F71F9108951F93182F0E94763C803249F0809103018F5FC1
:2079A000809303018530C1F01F9108958091C00085FFFCCF84E18093C6008091C00085FF4A
:2079C000FCCF1093C6008091C00085FFFCCF80E18093C6001F910895E0910401F0910501CF
:2079E00009951F9108950E94763C803241F0809103018F5F80930301853081F00895809177
:207A0000C00085FFFCCF84E18093C6008091C00085FFFCCF80E18093C6000895E0910401AC
:207A2000F09105010995089540E951E08823A1F02D9A28EE33E0FA013197F1F72150304072
:207A4000D1F72D9828EE33E0FA013197F1F721503040D1F7815061F708953F924F925F92B3
:207A60006F927F928F929F92AF92BF92CF92DF92EF92FF920F931F93CF93DF93000080E1A3
:207A80008093C4001092C50088E18093C10086E08093C2005098589A259A81E00E94143D43
:207AA00024E1F22E9EE1E92E85E9D82E0FE0C02E10E1B12EAA24A394B1E49B2EA6E58A2E44
:207AC000F2E57F2EE0E26E2E79E4572E63E5462E50E5352E0E94763C8033B1F18133B9F187
:207AE000803409F46FC0813409F476C0823409F485C0853409F488C0803531F1823521F128
:207B0000813511F1853509F485C0863509F48DC0843609F496C0843709F403C1853709F46A
:207B200072C1863709F466C0809103018F5F80930301853079F6E0910401F0910501099559
:207B40000E94763C803351F60E94F33CC3CF0E94763C803249F78091C00085FFFCCFF0928C
:207B6000C6008091C00085FFFCCF9092C6008091C00085FFFCCF8092C6008091C00085FFEA
:207B8000FCCF7092C6008091C00085FFFCCF6092C6008091C00085FFFCCF5092C6008091A1
:207BA000C00085FFFCCF4092C6008091C00085FFFCCF3092C6008091C00085FFFCCFB09214
:207BC000C60088CF0E94763C863808F4BDCF0E94763C0E94F33C7ECF0E94763C803809F473
:207BE0009CC0813809F40BC1823809F43CC1883909F48FC080E00E94C73C6CCF84E10E949F
:207C0000BD3C0E94F33C66CF85E00E94BD3C0E94F33C60CF0E94763C809306010E94763CA3
:207C2000809307010E94F33C55CF0E94763C803309F41DC183E00E94BD3C80E00E94C73C4F
:207C400049CF0E94763C809309020E94763C8093080280910C028E7F80930C020E94763C88
:207C6000853409F415C18091080290910902892B89F000E010E00E94763CF801E85FFE4F53
:207C800080830F5F1F4F80910802909109020817190788F30E94763C803209F045CF8091E0
:207CA0000C0280FF01C16091060170910701660F771F7093070160930601A0910802B091E8
:207CC00009021097C9F0E8E0F1E09B01AD014E0F5F1FF999FECF32BD21BD819180BDFA9A6C
:207CE000F99A2F5F3F4FE417F50799F76A0F7B1F70930701609306018091C00085FFFCCF16
:207D0000F092C6008091C00085FFFCCFB092C600E1CE83E00E94C73CDDCE82E00E94C73C8A
:207D2000D9CE0E94763C809309020E94763C809308028091060190910701880F991F909306
:207D40000701809306010E94763C853409F4A6C080910C028E7F80930C020E94763C80323E
:207D600009F0B8CE8091C00085FFFCCFF092C600609108027091090261157105B9F140E05F
:207D800050E080910C02A82FA170B82FB27011C0BB2309F45CC0E0910601F0910701319613
:207DA000F0930701E09306014F5F5F4F46175707E8F4AA2369F3F999FECF209106013091CA
:207DC000070132BD21BDF89A90B58091C00085FFFCCF9093C6002F5F3F4F30930701209354
:207DE00006014F5F5F4F4617570718F38091C00085FDE5CE8091C00085FFF8CFE0CE81E029
:207E00000E94C73C67CE0E94763C803209F08CCE8091C00085FFFCCFF092C6008091C000F6
:207E200085FFFCCFE092C6008091C00085FFFCCFD092C6008091C00085FFFCCFC092C6003B
:207E40008091C00085FFFCCFB092C60043CEE0910601F091070194918091C00085FFFCCFA3
:207E60009093C6009CCF80E10E94C73C33CE0E94763C0E94763C182F0E94763C112309F433
:207E800083C0113009F484C08FE00E94C73C22CE80910C02816080930C02E5CE80910C0226
:207EA000816080930C0259CF809107018823880F880B8A2180930B0280910601909107019E
:207EC000880F991F90930701809306018091080280FF09C0809108029091090201969093AA
:207EE000090280930802F894F999FECF1127E0910601F0910701C8E0D1E0809108029091A1
:207F00000902103091F40091570001700130D9F303E000935700E895009157000170013067
:207F2000D9F301E100935700E895099019900091570001700130D9F301E000935700E8954C
:207F40001395103498F011270091570001700130D9F305E000935700E8950091570001707A
:207F60000130D9F301E100935700E8953296029709F0C7CF103011F00296E5CF11248091F8
:1E7F8000C00085FFB9CEBCCE8EE10E94C73CA2CD85E90E94C73C9ECDF894FFCF8000B3
:00000001FF
